:020000040800F2
:100000000805002045010008871100088D0F000831
:1000100085110008E50100085516000800000000E1
:10002000000000000000000000000000F9110008BE
:100030000502000800000000A9110008B512000820
:100040005F0100085F0100085F0100085F01000810
:100050005F0100085F0100085F0100085F01000800
:100060005F0100085F0100085F0100085F010008F0
:100070005F0100085F0100085F0100085F010008E0
:100080005F0100085F0100085F0100085F010008D0
:100090005F0100085F0100085F0100085F010008C0
:1000A0005F0100085F0100085F0100085F010008B0
:1000B0005F0100085F0100085F0100085F010008A0
:1000C0005F0100085F0100085F0100085F01000890
:1000D0005F010008491600085F0100085F01000881
:1000E0005F0100085F0100085F0100085F01000870
:1000F0005F0100085F0100085F0100085F01000860
:100100005F0100085F0100085F0100085F0100084F
:100110005F0100085F0100085F0100085F0100083F
:100120005F0100085F0100085F0100085F0100082F
:10013000DFF80CD000F044F800480047E116000852
:10014000080500200648804706480047FEE7FEE70E
:10015000FEE7FEE7FEE7FEE7FEE7FEE7FEE7FEE777
:100160000513000831010008D2B201E000F8012BAC
:10017000491EFBD270470022F6E710B513460A4627
:1001800004461946FFF7F0FF204610BD30B505467E
:100190002A460B4612F8010B13F8014B08B1A04296
:1001A000F8D01CB1002802D06D1CF1E7284630BD04
:1001B000421C10F8011B0029FBD1801A7047000077
:1001C000064C074D06E0E06840F0010394E80700A4
:1001D00098471034AC42F6D3FFF7AEFF98170008EB
:1001E000B8170008FEE7000010B564210348FFF7C8
:1001F000C2FF03490020486010BD0000200000201D
:100200000000002070477047044B08B1012200E055
:1002100000222021184600F0A5B900000018014076
:100220002DE9F05F90F821100024022903D0042169
:100230008163012485E001680A6822F00E020A60E9
:1002400001680A6822F001020A603F4E3E4FB21573
:10025000DFF8F4C0DFF8F090DFF8ECA0DFF8E8B0EA
:10026000DFF8E4E00168783F13011502ACF1640C9B
:10027000A9F15009AAF13C0AABF1280BAEF1140E1A
:100280004FF48018B14227D9B9420ED0614512D03F
:1002900049451DD0514518D0594518D0714501D157
:1002A000424615E0294EB14201D1012210E0274E0D
:1002B0001436B14201D110220AE0244E2836B14250
:1002C00006D0224A3C32914201D11A4600E02A4629
:1002D0001E49091F0A602BE0B94213D0614517D0AF
:1002E000494522D051451DD059451DD0714501D1F8
:1002F00042461AE0B14202D14FF0807215E0134E2F
:10030000B14201D1012210E0104E1436B14201D1A8
:1003100010220AE00D4E2836B14206D00B4A3C327C
:10032000914201D11A4600E02A46074980394A60C5
:10033000012180F82110002180F82010416B01B1CB
:1003400088472046BDE8F09F800002400804024034
:1003500070B5044600F00CF90546601C02D0044854
:100360000078044400F004F9401BA042FAD370BDA9
:100370000C0000202DE9F84FDFF8B8A100220AF1A7
:10038000040B144601274FF00F090BF1040E00BFB8
:100390000B6807FA04F52B40AB4274D1DFF898C123
:1003A0004E68A6EB0C0866452BD00DDC032E34D02E
:1003B00005DC36B3012E19D0022E2FD11BE0112EF1
:1003C00016D0122E2AD119E0B8F5881F19D006DCF4
:1003D000B8F5803F15D0B8F5801F1FD111E0B8F5F2
:1003E000001F0ED0B8F5041F18D10AE0CA6815E046
:1003F000CA68121D12E0CA6808320FE0CA680C32DF
:100400000CE08A682AB1012A4FF0080203D0456146
:1004100004E0042202E0056100E00022FF2B01D885
:10042000064601E000F104064FEA840501D9A5F172
:100430002005D6F800C009FA05F82CEA080C02FAE3
:1004400005F54CEA050CC6F800C04D68ED006AD50C
:100450003A4DAE6946F00106AE61AD6924F003067F
:1004600005F001050095364D06EB050CDCF808504B
:10047000A6074FEA167809FA08F6B543314EB0429E
:1004800002D100261AE04EE02F4EB04201D10126E3
:1004900014E02E4EB04201D102260FE02C4EB042A5
:1004A00001D103260AE02B4EB04201D1042605E01B
:1004B000294EB04201D1052600E0062606FA08F6CC
:1004C0002E43CCF808604D68DAF80060ED0355461D
:1004D00001D51E4300E09E432E604D68AD0305D557
:1004E000DBF800601E43CBF8006004E0DBF800504E
:1004F0009D43CBF800504D68DEF80060ED02754674
:1005000001D51E4300E09E432E604D68AD0205D527
:10051000084D0C352E681E432E6004E0054E0C3647
:1005200035689D433560641C102CFFF431AFBDE885
:10053000F88F00000004014000001110001002407C
:100540000000014000080140000C01400010014083
:100550000014014000180140001C0140C2684A40DC
:10056000C26070470AB1016170470904FBE70000EF
:1005700001488068704700000C0000200248816834
:1005800002781144816070470C000020074810B5C4
:10059000016841F010010160032000F073F80020B1
:1005A00000F006F800F024F8002010BD0020024002
:1005B00070B50D4D04464FF47A712878B1FBF0F018
:1005C0000A490968B1FBF0F000F0FCFA48B9102CB8
:1005D00007D200222146501E00F034F800206C6043
:1005E00070BD012070BD00000C000020180000202C
:1005F0000C4808B5816941F001018161816901F010
:1006000001010091C16941F08051C161C06900F0F0
:10061000805000900448416821F0E06141F0806121
:10062000416008BD001002400000014000F01F02C0
:10063000012191404009800000F1E020C0F8001144
:1006400070470000F0B40E4B1B680C46C3F3022346
:10065000C3F10705042D00D90425191D072901D26E
:10066000002300E0DB1E012606FA05F1491E2140A9
:1006700099409E40761E16403143F0BC00F084BD88
:100680000CED00E0064900F0070208684FF6FF0392
:10069000184040EA0220034A1043086070470000F7
:1006A0000CED00E00000FA052DE9F047DFF8548179
:1006B00005460E46D8F8000000F00700B0420CD204
:1006C000D8F8001021F007013143C8F80010D8F81D
:1006D000000000F00700B0426FD128684A4C810743
:1006E00012D5400703D5606840F4E0606060287868
:1006F000000703D5606840F4605060606068A968D6
:1007000020F0F000084360602878C00744D0686893
:10071000012816D02168022816D0890700294CDA52
:10072000616821F0030101436160FFF721FF6968FF
:10073000074641F2883001290ED00229814618D09F
:1007400026E021688903E9E78901E7E7FFF710FF61
:10075000C11B494501D918E081466068C0F381009A
:100760000128F3D118E000BFFFF702FFC11B494584
:100770000BD86068C0F381000228F5D10CE000BFFF
:10078000FFF7F6FEC11B494502D90320BDE8F087FB
:10079000606810F00C0FF3D1D8F80010404601F05B
:1007A0000701B1420BD9016821F007013143016013
:1007B000006800F00700B04201D00120E6E7287889
:1007C000400705D56068E96820F4E0600843606090
:1007D0002878000706D56068296920F4605040EA4F
:1007E000C100606000F036F86168084AC1F3031187
:1007F000515CC840064908600020FFF7D9FE002080
:10080000C4E70000002002400010024080170008EA
:10081000180000200448054900684968044AC1F3EB
:100820000221515CC84070471800002000100240AF
:10083000901700080448054900684968044AC1F354
:10084000C221515CC84070471800002000100240CF
:100850009017000812A185B00FC98DE80F0014A0F1
:10086000144A006804905168134801F00C03042BEB
:1008700010D0082B0ED1C1F38343C9031DF8030028
:100880000AD5516804AAC1F34041515C0A4A504359
:10089000B0FBF1F005B0704708494843FAE70000A3
:1008A00002030405060708090A0B0C0D0E0F1010B1
:1008B000010200000010024000127A0000093D0011
:1008C0002DE9F84F04460078B94DC00748D0686854
:1008D000C0F38100012807D06868C0F381000228B6
:1008E00009D16868C00306D52868800338D56068D8
:1008F00000286FD034E06068B0F5803F0BD010B1B5
:10090000B0F5A02F11D0286820F480302860286826
:1009100020F4802002E0286840F48030286060687D
:1009200088B1FFF725FE064609E0286840F48020DC
:100930002860F0E7FFF71CFE801B642875D8286844
:100940008003F7D50CE0FFF713FE064605E000BF75
:10095000FFF70EFE801B6428F0D828688003F7D4C8
:100960002078944E80074FF001094FF000083BD5E6
:10097000686810F00C0F07D06868C0F38100022887
:1009800009D16868C00306D42868800714D5206997
:1009900001281FD110E02069B0B1C6F80090FFF720
:1009A000E7FD074605E000BFFFF7E2FDC01B022898
:1009B000C4D828688007F7D52868616920F0F80056
:1009C00040EAC10028600FE0C6F80080FFF7D0FDC4
:1009D000074606E0E9E000BFFFF7CAFDC01B02289A
:1009E00023D828688007F7D4207800072CD57248D0
:1009F000A169D9B1C0F80090FFF7BAFD074604E03D
:100A0000FFF7B6FDC01B02280FD8686A8007F7D52C
:100A10006A484FF4FA510068B0FBF1F0009000BF53
:100A20000098411E0091FAD20EE080E0C0F80080EC
:100A3000FFF79EFD074604E0FFF79AFDC01B022862
:100A400075D8686A8007F7D42078400760D5E869D0
:100A50000027C00008D4E86940F08050E861E869E8
:100A6000012700F08050009055480168C90513D453
:100A70000168834641F480710160FFF779FD824689
:100A800006E000BFFFF774FDA0EB0A0064284ED813
:100A9000DBF80000C005F5D5E06801280AD008B1F0
:100AA000052813D0286A20F001002862286A20F067
:100AB000040002E0286A40F001002862E06841F288
:100AC000883B98B1FFF754FD82460BE0286A40F05E
:100AD00004002862EEE700BFFFF74AFDA0EB0A0121
:100AE00059455AD8286A8007F6D50CE0FFF740FD33
:100AF000824605E0FFF73CFDA0EB0A0159454CD8C2
:100B0000286A8007F6D41FB1E86920F08050E861B8
:100B1000E06988B36968C1F38101022945D00228E0
:100B2000C6F8608004D0FFF723FD044638E034E0C7
:100B3000FFF71EFD074604E0FFF71AFDC01B022861
:100B40002BD828688001F7D4206AB0F5803F05D102
:100B50006868A16820F4003008436860D4E908019F
:100B60000843696821F4741108436860C6F860900E
:100B7000FFF7FEFC044606E015E000BFFFF7F8FCB7
:100B8000001B022809D828688001F7D50BE000BFB8
:100B9000FFF7EEFC001B022802D90320BDE8F88F06
:100BA00028688001F4D40020F8E70120F6E700006F
:100BB000001002400000424280044242180000201F
:100BC0000070004010B5401EB0F1807F01D30120BD
:100BD00010BD4FF0E02460610F21601700F0D4FADF
:100BE0000020A06107202061002010BD7047000098
:100BF00070B5026804461068D168536910F00F0F91
:100C000050D003F0010501F4907635435DD0C20762
:100C100005D0CA0503D5E26B42F00102E263420748
:100C200005D5DA0703D0E26B42F00202E2638207E5
:100C300005D5DA0703D0E26B42F00402E263020753
:100C400005D5DA0703D0E26B42F00802E263E26BFB
:100C5000002A33D0800604D5880602D5204600F04D
:100C60008BFB20684069E16BC0F38010090700D45A
:100C700028B3204600F072FB2068416949061AD566
:100C8000416921F040014161606BA0B11B494163A2
:100C9000606BFFF7C5FA002810D0606B416BBDE8B0
:100CA00070400847830610D58B060ED52046BDE858
:100CB000704000F061BB2046FFF798FF70BD2046F2
:100CC000FFF794FF0020E06370BD030606D50B0616
:100CD00004D52046BDE8704000F052BC4006F3D574
:100CE0004806F1D5D168204621F04001D16020218D
:100CF00084F8391000F049F970BD00004D13000868
:100D000070B5040004D094F83900002510B106E055
:100D1000012070BD84F83850204600F023F82420CC
:100D200084F839002068C16821F40051C160204670
:100D300000F06EFB2068016921F490410161206898
:100D4000416921F02A0141612068C16841F40051E4
:100D5000C160E563202084F8390084F83A0000205F
:100D600070BD000030B585B0002400940194029459
:100D700003942F4D03682F4802210322AB4229D14F
:100D8000C36943F48013C361C36903F480130493FC
:100D9000836943F010038361836903F010030493B4
:100DA000836943F0200383618069039200F020008F
:100DB0000490C802CDE9000169461F48FFF7DAFA3E
:100DC0000420CDE9000469461C480294FFF7D2FADA
:100DD00005B030BD1A4DAB42FAD1836943F480436C
:100DE0008361836903F480430493836943F00403BC
:100DF00083618069039200F0040004906815CDE9D6
:100E00000001104D69462846FFF7B4FA2815CDE9D0
:100E10000004694628460294FFF7ACFA0022114606
:100E20002520FFF70FFC2520FFF700FCD0E700008E
:100E3000005000400010024000100140001401402A
:100E4000003801400008014090F83A30202B22D1B0
:100E5000F9B1F2B190F83830012B1CD08162828553
:100E6000C2850021C163222280F83A2080F8381020
:100E70000168CA6842F48072CA6001684A6942F037
:100E800001024A610068C16841F02001C160002090
:100E90007047012070470220704700000068084931
:100EA00088420CD10748084A01784368D154416808
:100EB000491C4160014601220448FFF7C5BF704745
:100EC000003801400000002020000020C400002065
:100ED0002DE9F843044690F839001F4616460D46A2
:100EE000202850D1A5B19EB194F8380001284AD0ED
:100EF000012084F838004FF00008C4F83C8021201D
:100F000084F83900FFF734FBA6848146E68426E0A6
:100F10000120BDE8F883E08C401EE084A0684B46C9
:100F2000B0F5805F4FF000024FF08001204600973F
:100F300003D000F056FBE8B90DE000F052FBC8B951
:100F400028882168C0F308004860206908B16D1C3A
:100F500005E0AD1C03E0216815F8010B4860E08C4A
:100F60000028D8D14B46002240212046009700F0AF
:100F700038FB08B10320CCE7202084F8390084F83E
:100F800038800020C5E70220C3E77047FEE7000075
:100F900010B54FF4FA6422461CA11DA000F02EF9F2
:100FA000002832D0224619A11AA000F027F9002803
:100FB0002BD0224615A119A000F020F9002824D03A
:100FC000224612A117A000F019F900281DD02246D0
:100FD0000EA117A000F012F9002816D022460BA18E
:100FE00016A000F00BF900280FD041F2883207A1BB
:100FF00014A000F003F9002807D0224603A113A093
:1010000000F0FCF8002800D0012010BD4F4B00007C
:1010100041540D00415456310D00000041544530FB
:101020000D0000002041542B434D45453D320D003D
:1010300041542B4950523F0D000000004154490DCE
:101040000000000041542B47534E0D0041542B43E8
:1010500050494E3F0D0000002DE9F04186B00024BC
:1010600029480094019402940394816941F040015D
:101070008161816901F040010491816941F01001B1
:101080008161816901F010010491816941F00401DD
:101090008161816901F004010491816941F02001BD
:1010A00081618069194F00F02000049000226021C6
:1010B0003846FFF757FADFF85880002206214046ED
:1010C000FFF750FA20200125CDE900050320CDE9E6
:1010D000024069463846FFF74DF940200226CDE927
:1010E0000005CDE9024669463846FFF743F9062078
:1010F000CDE90005CDE9024669464046FFF73AF9D9
:1011000006B0BDE8F0810000001002400018014068
:10111000001001400C4810B50A4901604FF4E1315C
:101120004160002181600C22C160C0E9041281612C
:10113000C161FFF7E5FD002803D0BDE81040FFF7CF
:1011400062B810BD00500040840000200C4810B56B
:101150000A4901604FF4E1314160002181600C22B5
:10116000C160C0E904128161C161FFF7C9FD0028B7
:1011700003D0BDE81040FFF746B810BD003801406D
:10118000C4000020FEE770470907090E002806DAB0
:1011900000F00F0000F1E02080F8141D704700F10E
:1011A000E02080F8001470477047000070B5114CC3
:1011B000064600252A4602212046FFF7D3F94FF4C0
:1011C0007A60FFF7C5F8012202212046FFF7CAF92D
:1011D00041F28830FFF7BCF8002406E0FFF7D8FEA4
:1011E00008B1012503E00025641CB442F6DB284663
:1011F00070BD000000100140704700002DE9F04173
:1012000014008846054641F2883617D0FFF7B0F93A
:101210000719FEF7E9FF41461C48FEF7B7FF1C4CD3
:10122000A0602846FEF7C4FF82B23346294619481B
:10123000FFF74EFE284600F037FA0DE0FEF7B8FF44
:1012400082B2334629461348FFF742FE16E0414674
:101250000E48FEF79BFFA060FFF78AF9B84202D262
:10126000A0680028F3D00CA000F01EFA074800F098
:101270001BFAA06828B10BA000F016FA0120BDE807
:10128000F0810AA000F010FA0020F8E7200000200A
:1012900000000020C400002052435644204255461E
:1012A000463A00004D415443480D000054494D4515
:1012B00055500D00FFF762B930B58FB02821684650
:1012C000FEF759FF14210AA8FEF755FF022401205A
:1012D000049000941020059000254FF46010CDE993
:1012E000085007946846FFF7EBFA0AA90F2081E837
:1012F00031006002CDE90D0502210AA8FFF7D4F9FB
:101300000FB030BD0D48016841F001010160416836
:101310000B4A1140416001680A4A114001600168AE
:1013200021F480210160416821F4FE0141604FF405
:101330001F0181600449C00308607047001002402B
:101340000000FFF8FFFFF6FE08ED00E010B5406A70
:101350000021C185C184FFF749FC10BD0168CA683E
:1013600022F49072CA6001684A6922F001024A615F
:10137000202180F83A10704710B590F83A102229D1
:1013800001D0022010BD8168B1F5805F11D00169E4
:10139000002901681FD0496801F07F03816A4A1C57
:1013A00082620B70C18D491E0904090CC18518D0D9
:1013B0002BE00269816A002A0268526805D0D2B225
:1013C0000A80816A491C8162ECE7C2F308020A8044
:1013D000816A891CF7E74A68816A4B1C83620A703C
:1013E000E0E70168CA6822F02002CA600168CA68A2
:1013F00022F48072CA6001684A6922F001024A61DF
:10140000202180F83A10FFF749FD002010BD0000B0
:101410002DE9F041044600680169E26821F4405179
:10142000114301612169A06808436169084321688B
:10143000CA6841F20C639A430243CA60206841695A
:10144000A26921F44071114341614C49206864252F
:10145000322688423CD1FFF7EDF900EBC00101EBE9
:10146000001061688900B0FBF1F7FFF7E3F900EBCA
:10147000C00101EB00106168B0468900B0FBF1F0DB
:10148000B0FBF5F06FF01801484307EB800106EB65
:101490000110B0FBF5F000F0F006FFF7CBF900EB20
:1014A000C00101EB001061688900B0FBF1F0B0FBF6
:1014B000F5F006EB0016FFF7BDF900EBC00101EBFC
:1014C000001061688900B0FBF1F7FFF7B3F93BE06A
:1014D000FFF7A0F900EBC00101EB00106168890083
:1014E000B0FBF1F7FFF796F900EBC00101EB00103C
:1014F0006168B0468900B0FBF1F0B0FBF5F06FF029
:101500001801484307EB800106EB0110B0FBF5F032
:1015100000F0F006FFF77EF900EBC00101EB0010D0
:1015200061688900B0FBF1F0B0FBF5F006EB001646
:10153000FFF770F900EBC00101EB00106168890052
:10154000B0FBF1F7FFF766F900EBC00101EB00100B
:1015500061688900B0FBF1F0B0FBF5F06FF01801A5
:10156000484307EB800108EB0110B0FBF5F0216860
:1015700000F00F0030448860BDE8F0810038014081
:1015800090F83910212901D0022070478168B1F507
:10159000805F016A0BD04A1C0262026809785160C0
:1015A000C18C491E0904090CC1840ED017E00988BA
:1015B0000268C1F30801516001690029016A02D083
:1015C000491C0162ECE7891CFBE70168CA6822F04C
:1015D0008002CA600068C16841F04001C16000201B
:1015E00070472DE9F041984617460E460446069D81
:1015F0001DE0681C1BD02DB1FEF7BAFFA0EB080060
:10160000A84214D92068C16821F4D071C160206853
:10161000416921F001014161202084F8390084F8FA
:101620003A00002084F838000320BDE8F0812068EB
:10163000006836EA000004D00020B842D9D000206B
:10164000F3E70120F9E700000148FFF7D1BA0000F5
:10165000C4000020FEE70000014A024900F013B870
:10166000C91600081C00002002E008C8121F08C1AB
:10167000002AFAD170477047002001E001C1121F13
:10168000002AFBD170472DE9F04116460F4604466B
:10169000002503E03946B047641C6D1C2078002803
:1016A000F8D12846BDE8F08110B50446FEF780FD6C
:1016B000214682B2BDE8104041F288330148FFF76D
:1016C00007BC00008400002013B54FF47A73012298
:1016D00069460248FFF7FCFB00201CBD8400002087
:1016E000FEF754FFFFF7E8FDFFF7B6FCFFF712FD2A
:1016F000FFF72CFD012211491148FFF7A5FB0F4907
:101700000122891C0F48FFF79FFB0FA0FFF7A4FFE2
:1017100020211148FEF722FF0A20FFF747FD30B1D4
:101720000020FEF771FD0DA0FFF7BEFFFEE70FA042
:10173000FFF7BAFF0120FEF767FDEDE7000000208C
:10174000C40000208400002048454C4C4F205541E7
:101750005254350D0A000000001801404D6F6465B9
:101760006D2052656164792E2E2E0D004D6F6465DB
:101770006D204661696C65642E2E2E0D0000000000
:101780000000000000000000010203040607080931
:101790000000000001020304B81700080000002048
:1017A0002000000068160008D8170008200000205C
:1017B000E8040000781600080000000000000000A7
:1017C0000000000001000000100000000000000008
:0817D00000A24A040000000021
:0400000508000131BD
:00000001FF
